{
  "contractName": "TranquilStaking",
  "abi": [
    {
      "inputs": [],
      "payable": false,
      "stateMutability": "nonpayable",
      "type": "constructor"
    },
    {
      "payable": true,
      "stateMutability": "payable",
      "type": "fallback"
    },
    {
      "constant": true,
      "inputs": [],
      "name": "accrualBlockTimestamp",
      "outputs": [
        {
          "internalType": "uint256",
          "name": "",
          "type": "uint256"
        }
      ],
      "payable": false,
      "stateMutability": "view",
      "type": "function"
    },
    {
      "constant": true,
      "inputs": [
        {
          "internalType": "address",
          "name": "",
          "type": "address"
        },
        {
          "internalType": "uint256",
          "name": "",
          "type": "uint256"
        }
      ],
      "name": "accruedReward",
      "outputs": [
        {
          "internalType": "uint256",
          "name": "",
          "type": "uint256"
        }
      ],
      "payable": false,
      "stateMutability": "view",
      "type": "function"
    },
    {
      "constant": true,
      "inputs": [],
      "name": "admin",
      "outputs": [
        {
          "internalType": "address",
          "name": "",
          "type": "address"
        }
      ],
      "payable": false,
      "stateMutability": "view",
      "type": "function"
    },
    {
      "constant": true,
      "inputs": [],
      "name": "implementation",
      "outputs": [
        {
          "internalType": "address",
          "name": "",
          "type": "address"
        }
      ],
      "payable": false,
      "stateMutability": "view",
      "type": "function"
    },
    {
      "constant": true,
      "inputs": [],
      "name": "pendingAdmin",
      "outputs": [
        {
          "internalType": "address",
          "name": "",
          "type": "address"
        }
      ],
      "payable": false,
      "stateMutability": "view",
      "type": "function"
    },
    {
      "constant": true,
      "inputs": [],
      "name": "pendingImplementation",
      "outputs": [
        {
          "internalType": "address",
          "name": "",
          "type": "address"
        }
      ],
      "payable": false,
      "stateMutability": "view",
      "type": "function"
    },
    {
      "constant": true,
      "inputs": [
        {
          "internalType": "uint256",
          "name": "",
          "type": "uint256"
        }
      ],
      "name": "rewardIndex",
      "outputs": [
        {
          "internalType": "uint256",
          "name": "",
          "type": "uint256"
        }
      ],
      "payable": false,
      "stateMutability": "view",
      "type": "function"
    },
    {
      "constant": true,
      "inputs": [
        {
          "internalType": "uint256",
          "name": "",
          "type": "uint256"
        }
      ],
      "name": "rewardSpeeds",
      "outputs": [
        {
          "internalType": "uint256",
          "name": "",
          "type": "uint256"
        }
      ],
      "payable": false,
      "stateMutability": "view",
      "type": "function"
    },
    {
      "constant": true,
      "inputs": [
        {
          "internalType": "uint256",
          "name": "",
          "type": "uint256"
        }
      ],
      "name": "rewardTokenAddresses",
      "outputs": [
        {
          "internalType": "address",
          "name": "",
          "type": "address"
        }
      ],
      "payable": false,
      "stateMutability": "view",
      "type": "function"
    },
    {
      "constant": true,
      "inputs": [],
      "name": "stakedTokenAddress",
      "outputs": [
        {
          "internalType": "address",
          "name": "",
          "type": "address"
        }
      ],
      "payable": false,
      "stateMutability": "view",
      "type": "function"
    },
    {
      "constant": true,
      "inputs": [
        {
          "internalType": "address",
          "name": "",
          "type": "address"
        },
        {
          "internalType": "uint256",
          "name": "",
          "type": "uint256"
        }
      ],
      "name": "supplierRewardIndex",
      "outputs": [
        {
          "internalType": "uint256",
          "name": "",
          "type": "uint256"
        }
      ],
      "payable": false,
      "stateMutability": "view",
      "type": "function"
    },
    {
      "constant": true,
      "inputs": [
        {
          "internalType": "address",
          "name": "",
          "type": "address"
        }
      ],
      "name": "supplyAmount",
      "outputs": [
        {
          "internalType": "uint256",
          "name": "",
          "type": "uint256"
        }
      ],
      "payable": false,
      "stateMutability": "view",
      "type": "function"
    },
    {
      "constant": true,
      "inputs": [],
      "name": "totalSupplies",
      "outputs": [
        {
          "internalType": "uint256",
          "name": "",
          "type": "uint256"
        }
      ],
      "payable": false,
      "stateMutability": "view",
      "type": "function"
    },
    {
      "constant": false,
      "inputs": [
        {
          "internalType": "uint256",
          "name": "amount",
          "type": "uint256"
        }
      ],
      "name": "deposit",
      "outputs": [],
      "payable": false,
      "stateMutability": "nonpayable",
      "type": "function"
    },
    {
      "constant": false,
      "inputs": [
        {
          "internalType": "uint256",
          "name": "amount",
          "type": "uint256"
        }
      ],
      "name": "redeem",
      "outputs": [],
      "payable": false,
      "stateMutability": "nonpayable",
      "type": "function"
    },
    {
      "constant": false,
      "inputs": [],
      "name": "claimRewards",
      "outputs": [],
      "payable": false,
      "stateMutability": "nonpayable",
      "type": "function"
    },
    {
      "constant": true,
      "inputs": [
        {
          "internalType": "uint256",
          "name": "rewardToken",
          "type": "uint256"
        }
      ],
      "name": "getClaimableRewards",
      "outputs": [
        {
          "internalType": "uint256",
          "name": "",
          "type": "uint256"
        }
      ],
      "payable": false,
      "stateMutability": "view",
      "type": "function"
    },
    {
      "constant": false,
      "inputs": [
        {
          "internalType": "uint256",
          "name": "rewardToken",
          "type": "uint256"
        },
        {
          "internalType": "uint256",
          "name": "speed",
          "type": "uint256"
        }
      ],
      "name": "setRewardSpeed",
      "outputs": [],
      "payable": false,
      "stateMutability": "nonpayable",
      "type": "function"
    },
    {
      "constant": false,
      "inputs": [
        {
          "internalType": "uint256",
          "name": "rewardToken",
          "type": "uint256"
        },
        {
          "internalType": "address",
          "name": "rewardTokenAddress",
          "type": "address"
        }
      ],
      "name": "setRewardTokenAddress",
      "outputs": [],
      "payable": false,
      "stateMutability": "nonpayable",
      "type": "function"
    },
    {
      "constant": false,
      "inputs": [
        {
          "internalType": "address",
          "name": "newStakedTokenAddress",
          "type": "address"
        }
      ],
      "name": "setStakedTokenAddress",
      "outputs": [],
      "payable": false,
      "stateMutability": "nonpayable",
      "type": "function"
    },
    {
      "constant": false,
      "inputs": [
        {
          "internalType": "contract TranquilStakingProxy",
          "name": "proxy",
          "type": "address"
        }
      ],
      "name": "becomeImplementation",
      "outputs": [],
      "payable": false,
      "stateMutability": "nonpayable",
      "type": "function"
    }
  ],
  "bytecode": "0x608060405234801561001057600080fd5b50600160008190555033600160006101000a81548173ffffffffffffffffffffffffffffffffffffffff021916908373ffffffffffffffffffffffffffffffffffffffff160217905550612694806100696000396000f3fe60806040526004361061012a5760003560e01c806384ae152d116100ab578063db006a751161006f578063db006a7514610597578063eaac8c32146105d2578063f495c9c914610623578063f75ddfa814610692578063f851a44014610701578063ff333a76146107585761012a565b806384ae152d14610466578063b6b55f25146104c1578063cfa99201146104fc578063d03a7d2514610527578063d068cdc51461056c5761012a565b8063396f7b23116100f2578063396f7b231461029f5780635c60da1b146102f65780636612313a1461034d5780637b167dfa1461039c5780637b2d9b2c146103eb5761012a565b80631130a36c1461012c57806313e173061461019157806324cb2d9a146101e25780632678224714610231578063372500ab14610288575b005b34801561013857600080fd5b5061017b6004803603602081101561014f57600080fd5b81019080803573ffffffffffffffffffffffffffffffffffffffff1690602001909291905050506107af565b6040518082815260200191505060405180910390f35b34801561019d57600080fd5b506101e0600480360360208110156101b457600080fd5b81019080803573ffffffffffffffffffffffffffffffffffffffff1690602001909291905050506107c7565b005b3480156101ee57600080fd5b5061021b6004803603602081101561020557600080fd5b81019080803590602001909291905050506108ce565b6040518082815260200191505060405180910390f35b34801561023d57600080fd5b506102466108e6565b604051808273ffffffffffffffffffffffffffffffffffffffff1673ffffffffffffffffffffffffffffffffffffffff16815260200191505060405180910390f35b34801561029457600080fd5b5061029d61090c565b005b3480156102ab57600080fd5b506102b4610a35565b604051808273ffffffffffffffffffffffffffffffffffffffff1673ffffffffffffffffffffffffffffffffffffffff16815260200191505060405180910390f35b34801561030257600080fd5b5061030b610a5b565b604051808273ffffffffffffffffffffffffffffffffffffffff1673ffffffffffffffffffffffffffffffffffffffff16815260200191505060405180910390f35b34801561035957600080fd5b506103866004803603602081101561037057600080fd5b8101908080359060200190929190505050610a81565b6040518082815260200191505060405180910390f35b3480156103a857600080fd5b506103d5600480360360208110156103bf57600080fd5b8101908080359060200190929190505050610a99565b6040518082815260200191505060405180910390f35b3480156103f757600080fd5b506104246004803603602081101561040e57600080fd5b8101908080359060200190929190505050610c6f565b604051808273ffffffffffffffffffffffffffffffffffffffff1673ffffffffffffffffffffffffffffffffffffffff16815260200191505060405180910390f35b34801561047257600080fd5b506104bf6004803603604081101561048957600080fd5b8101908080359060200190929190803573ffffffffffffffffffffffffffffffffffffffff169060200190929190505050610ca2565b005b3480156104cd57600080fd5b506104fa600480360360208110156104e457600080fd5b8101908080359060200190929190505050610e32565b005b34801561050857600080fd5b50610511611340565b6040518082815260200191505060405180910390f35b34801561053357600080fd5b5061056a6004803603604081101561054a57600080fd5b810190808035906020019092919080359060200190929190505050611346565b005b34801561057857600080fd5b50610581611438565b6040518082815260200191505060405180910390f35b3480156105a357600080fd5b506105d0600480360360208110156105ba57600080fd5b810190808035906020019092919050505061143e565b005b3480156105de57600080fd5b50610621600480360360208110156105f557600080fd5b81019080803573ffffffffffffffffffffffffffffffffffffffff1690602001909291905050506117cb565b005b34801561062f57600080fd5b5061067c6004803603604081101561064657600080fd5b81019080803573ffffffffffffffffffffffffffffffffffffffff16906020019092919080359060200190929190505050611932565b6040518082815260200191505060405180910390f35b34801561069e57600080fd5b506106eb600480360360408110156106b557600080fd5b81019080803573ffffffffffffffffffffffffffffffffffffffff16906020019092919080359060200190929190505050611957565b6040518082815260200191505060405180910390f35b34801561070d57600080fd5b5061071661197c565b604051808273ffffffffffffffffffffffffffffffffffffffff1673ffffffffffffffffffffffffffffffffffffffff16815260200191505060405180910390f35b34801561076457600080fd5b5061076d6119a2565b604051808273ffffffffffffffffffffffffffffffffffffffff1673ffffffffffffffffffffffffffffffffffffffff16815260200191505060405180910390f35b60096020528060005260406000206000915090505481565b600160009054906101000a900473ffffffffffffffffffffffffffffffffffffffff1673ffffffffffffffffffffffffffffffffffffffff163373ffffffffffffffffffffffffffffffffffffffff161461088a576040517f08c379a000000000000000000000000000000000000000000000000000000000815260040180806020018281038252600a8152602001807f61646d696e206f6e6c790000000000000000000000000000000000000000000081525060200191505060405180910390fd5b80600560006101000a81548173ffffffffffffffffffffffffffffffffffffffff021916908373ffffffffffffffffffffffffffffffffffffffff16021790555050565b60076020528060005260406000206000915090505481565b600260009054906101000a900473ffffffffffffffffffffffffffffffffffffffff1681565b60026000541415610985576040517f08c379a000000000000000000000000000000000000000000000000000000000815260040180806020018281038252601f8152602001807f5265656e7472616e637947756172643a207265656e7472616e742063616c6c0081525060200191505060405180910390fd5b6002600081905550610996336119c8565b60008090505b6002811015610a2a576000600860003373ffffffffffffffffffffffffffffffffffffffff1673ffffffffffffffffffffffffffffffffffffffff16815260200190815260200160002060008381526020019081526020016000205490506001821415610a1257610a0d3382611c00565b610a1e565b610a1d823383611dcb565b5b5060018101905061099c565b506001600081905550565b600460009054906101000a900473ffffffffffffffffffffffffffffffffffffffff1681565b600360009054906101000a900473ffffffffffffffffffffffffffffffffffffffff1681565b600b6020528060005260406000206000915090505481565b60006002821115610b12576040517f08c379a00000000000000000000000000000000000000000000000000000000081526004018080602001828103825260148152602001807f496e76616c69642072657761726420746f6b656e00000000000000000000000081525060200191505060405180910390fd5b6000610b8a600c60003373ffffffffffffffffffffffffffffffffffffffff1673ffffffffffffffffffffffffffffffffffffffff168152602001908152602001600020600085815260200190815260200160002054600b60008681526020019081526020016000205461217990919063ffffffff16565b90506000610c63600860003373ffffffffffffffffffffffffffffffffffffffff1673ffffffffffffffffffffffffffffffffffffffff168152602001908152602001600020600086815260200190815260200160002054610c556ec097ce7bc90715b34b9f1000000000610c47600960003373ffffffffffffffffffffffffffffffffffffffff1673ffffffffffffffffffffffffffffffffffffffff16815260200190815260200160002054876121c390919063ffffffff16565b61224990919063ffffffff16565b61229390919063ffffffff16565b90508092505050919050565b60066020528060005260406000206000915054906101000a900473ffffffffffffffffffffffffffffffffffffffff1681565b600160009054906101000a900473ffffffffffffffffffffffffffffffffffffffff1673ffffffffffffffffffffffffffffffffffffffff163373ffffffffffffffffffffffffffffffffffffffff1614610d65576040517f08c379a000000000000000000000000000000000000000000000000000000000815260040180806020018281038252600a8152602001807f61646d696e206f6e6c790000000000000000000000000000000000000000000081525060200191505060405180910390fd5b6001821415610ddc576040517f08c379a00000000000000000000000000000000000000000000000000000000081526004018080602001828103825260168152602001807f43616e6e6f7420736574204f4e4520616464726573730000000000000000000081525060200191505060405180910390fd5b806006600084815260200190815260200160002060006101000a81548173ffffffffffffffffffffffffffffffffffffffff021916908373ffffffffffffffffffffffffffffffffffffffff1602179055505050565b60026000541415610eab576040517f08c379a000000000000000000000000000000000000000000000000000000000815260040180806020018281038252601f8152602001807f5265656e7472616e637947756172643a207265656e7472616e742063616c6c0081525060200191505060405180910390fd5b6002600081905550600073ffffffffffffffffffffffffffffffffffffffff16600560009054906101000a900473ffffffffffffffffffffffffffffffffffffffff1673ffffffffffffffffffffffffffffffffffffffff161415610f5b576040517f08c379a000000000000000000000000000000000000000000000000000000000815260040180806020018281038252602481526020018061263c6024913960400191505060405180910390fd5b6000600560009054906101000a900473ffffffffffffffffffffffffffffffffffffffff16905060008173ffffffffffffffffffffffffffffffffffffffff166370a08231306040518263ffffffff1660e01b8152600401808273ffffffffffffffffffffffffffffffffffffffff1673ffffffffffffffffffffffffffffffffffffffff16815260200191505060206040518083038186803b15801561100157600080fd5b505afa158015611015573d6000803e3d6000fd5b505050506040513d602081101561102b57600080fd5b810190808051906020019092919050505090508173ffffffffffffffffffffffffffffffffffffffff166323b872dd3330866040518463ffffffff1660e01b8152600401808473ffffffffffffffffffffffffffffffffffffffff1673ffffffffffffffffffffffffffffffffffffffff1681526020018373ffffffffffffffffffffffffffffffffffffffff1673ffffffffffffffffffffffffffffffffffffffff1681526020018281526020019350505050602060405180830381600087803b1580156110f957600080fd5b505af115801561110d573d6000803e3d6000fd5b505050506040513d602081101561112357600080fd5b8101908080519060200190929190505050506000611201828473ffffffffffffffffffffffffffffffffffffffff166370a08231306040518263ffffffff1660e01b8152600401808273ffffffffffffffffffffffffffffffffffffffff1673ffffffffffffffffffffffffffffffffffffffff16815260200191505060206040518083038186803b1580156111b857600080fd5b505afa1580156111cc573d6000803e3d6000fd5b505050506040513d60208110156111e257600080fd5b810190808051906020019092919050505061217990919063ffffffff16565b905060008111611279576040517f08c379a000000000000000000000000000000000000000000000000000000000815260040180806020018281038252600c8152602001807f5a65726f206465706f736974000000000000000000000000000000000000000081525060200191505060405180910390fd5b611282336119c8565b61129781600a5461229390919063ffffffff16565b600a819055506112ef81600960003373ffffffffffffffffffffffffffffffffffffffff1673ffffffffffffffffffffffffffffffffffffffff1681526020019081526020016000205461229390919063ffffffff16565b600960003373ffffffffffffffffffffffffffffffffffffffff1673ffffffffffffffffffffffffffffffffffffffff16815260200190815260200160002081905550505050600160008190555050565b600d5481565b600160009054906101000a900473ffffffffffffffffffffffffffffffffffffffff1673ffffffffffffffffffffffffffffffffffffffff163373ffffffffffffffffffffffffffffffffffffffff1614611409576040517f08c379a000000000000000000000000000000000000000000000000000000000815260040180806020018281038252600a8152602001807f61646d696e206f6e6c790000000000000000000000000000000000000000000081525060200191505060405180910390fd5b6000600d541461141c5761141b61231b565b5b8060076000848152602001908152602001600020819055505050565b600a5481565b600260005414156114b7576040517f08c379a000000000000000000000000000000000000000000000000000000000815260040180806020018281038252601f8152602001807f5265656e7472616e637947756172643a207265656e7472616e742063616c6c0081525060200191505060405180910390fd5b6002600081905550600073ffffffffffffffffffffffffffffffffffffffff16600560009054906101000a900473ffffffffffffffffffffffffffffffffffffffff1673ffffffffffffffffffffffffffffffffffffffff161415611567576040517f08c379a000000000000000000000000000000000000000000000000000000000815260040180806020018281038252602481526020018061263c6024913960400191505060405180910390fd5b600960003373ffffffffffffffffffffffffffffffffffffffff1673ffffffffffffffffffffffffffffffffffffffff1681526020019081526020016000205481111561161c576040517f08c379a00000000000000000000000000000000000000000000000000000000081526004018080602001828103825260148152602001807f546f6f206c61726765207769746864726177616c00000000000000000000000081525060200191505060405180910390fd5b611625336119c8565b61167781600960003373ffffffffffffffffffffffffffffffffffffffff1673ffffffffffffffffffffffffffffffffffffffff1681526020019081526020016000205461217990919063ffffffff16565b600960003373ffffffffffffffffffffffffffffffffffffffff1673ffffffffffffffffffffffffffffffffffffffff168152602001908152602001600020819055506116cf81600a5461217990919063ffffffff16565b600a819055506000600560009054906101000a900473ffffffffffffffffffffffffffffffffffffffff1690508073ffffffffffffffffffffffffffffffffffffffff1663a9059cbb33846040518363ffffffff1660e01b8152600401808373ffffffffffffffffffffffffffffffffffffffff1673ffffffffffffffffffffffffffffffffffffffff16815260200182815260200192505050602060405180830381600087803b15801561178357600080fd5b505af1158015611797573d6000803e3d6000fd5b505050506040513d60208110156117ad57600080fd5b81019080805190602001909291905050505050600160008190555050565b8073ffffffffffffffffffffffffffffffffffffffff1663f851a4406040518163ffffffff1660e01b815260040160206040518083038186803b15801561181157600080fd5b505afa158015611825573d6000803e3d6000fd5b505050506040513d602081101561183b57600080fd5b810190808051906020019092919050505073ffffffffffffffffffffffffffffffffffffffff163373ffffffffffffffffffffffffffffffffffffffff16146118cf576040517f08c379a000000000000000000000000000000000000000000000000000000000815260040180806020018281038252602e8152602001806125c9602e913960400191505060405180910390fd5b8073ffffffffffffffffffffffffffffffffffffffff166316ec205c6040518163ffffffff1660e01b8152600401600060405180830381600087803b15801561191757600080fd5b505af115801561192b573d6000803e3d6000fd5b5050505050565b6008602052816000526040600020602052806000526040600020600091509150505481565b600c602052816000526040600020602052806000526040600020600091509150505481565b600160009054906101000a900473ffffffffffffffffffffffffffffffffffffffff1681565b600560009054906101000a900473ffffffffffffffffffffffffffffffffffffffff1681565b6119d061231b565b60008090505b6002811015611bfc576000611a57600c60008573ffffffffffffffffffffffffffffffffffffffff1673ffffffffffffffffffffffffffffffffffffffff168152602001908152602001600020600084815260200190815260200160002054600b60008581526020019081526020016000205461217990919063ffffffff16565b90506000611ace6ec097ce7bc90715b34b9f1000000000611ac0600960008873ffffffffffffffffffffffffffffffffffffffff1673ffffffffffffffffffffffffffffffffffffffff16815260200190815260200160002054856121c390919063ffffffff16565b61224990919063ffffffff16565b9050611b3381600860008773ffffffffffffffffffffffffffffffffffffffff1673ffffffffffffffffffffffffffffffffffffffff16815260200190815260200160002060008681526020019081526020016000205461229390919063ffffffff16565b600860008673ffffffffffffffffffffffffffffffffffffffff1673ffffffffffffffffffffffffffffffffffffffff168152602001908152602001600020600085815260200190815260200160002081905550600b600084815260200190815260200160002054600c60008673ffffffffffffffffffffffffffffffffffffffff1673ffffffffffffffffffffffffffffffffffffffff16815260200190815260200160002060008581526020019081526020016000208190555050506001810190506119d6565b5050565b80600860008473ffffffffffffffffffffffffffffffffffffffff1673ffffffffffffffffffffffffffffffffffffffff168152602001908152602001600020600060018152602001908152602001600020541115611cc7576040517f08c379a000000000000000000000000000000000000000000000000000000000815260040180806020018281038252601a8152602001807f4e6f7420656e6f7567682061636372756564207265776172647300000000000081525060200191505060405180910390fd5b611d2b81600860008573ffffffffffffffffffffffffffffffffffffffff1673ffffffffffffffffffffffffffffffffffffffff1681526020019081526020016000206000600181526020019081526020016000205461217990919063ffffffff16565b600860008473ffffffffffffffffffffffffffffffffffffffff1673ffffffffffffffffffffffffffffffffffffffff168152602001908152602001600020600060018152602001908152602001600020819055508173ffffffffffffffffffffffffffffffffffffffff166108fc829081150290604051600060405180830381858888f19350505050158015611dc6573d6000803e3d6000fd5b505050565b6001831415611e42576040517f08c379a000000000000000000000000000000000000000000000000000000000815260040180806020018281038252601d8152602001807f43616e6e6f742075736520636c61696d457263323020666f72204f4e4500000081525060200191505060405180910390fd5b80600860008473ffffffffffffffffffffffffffffffffffffffff1673ffffffffffffffffffffffffffffffffffffffff1681526020019081526020016000206000858152602001908152602001600020541115611f08576040517f08c379a000000000000000000000000000000000000000000000000000000000815260040180806020018281038252601a8152602001807f4e6f7420656e6f7567682061636372756564207265776172647300000000000081525060200191505060405180910390fd5b600073ffffffffffffffffffffffffffffffffffffffff166006600085815260200190815260200160002060009054906101000a900473ffffffffffffffffffffffffffffffffffffffff1673ffffffffffffffffffffffffffffffffffffffff161415611fc1576040517f08c379a00000000000000000000000000000000000000000000000000000000081526004018080602001828103825260248152602001806126186024913960400191505060405180910390fd5b60006006600085815260200190815260200160002060009054906101000a900473ffffffffffffffffffffffffffffffffffffffff16905061205c82600860008673ffffffffffffffffffffffffffffffffffffffff1673ffffffffffffffffffffffffffffffffffffffff16815260200190815260200160002060008781526020019081526020016000205461217990919063ffffffff16565b600860008573ffffffffffffffffffffffffffffffffffffffff1673ffffffffffffffffffffffffffffffffffffffff1681526020019081526020016000206000868152602001908152602001600020819055508073ffffffffffffffffffffffffffffffffffffffff1663a9059cbb84846040518363ffffffff1660e01b8152600401808373ffffffffffffffffffffffffffffffffffffffff1673ffffffffffffffffffffffffffffffffffffffff16815260200182815260200192505050602060405180830381600087803b15801561213757600080fd5b505af115801561214b573d6000803e3d6000fd5b505050506040513d602081101561216157600080fd5b81019080805190602001909291905050505050505050565b60006121bb83836040518060400160405280601f81526020017f536166654d6174683a207375627472616374696f6e20756e646572666c6f7700815250612442565b905092915050565b6000808314156121d65760009050612243565b60008284029050828482816121e757fe5b041461223e576040517f08c379a00000000000000000000000000000000000000000000000000000000081526004018080602001828103825260218152602001806125f76021913960400191505060405180910390fd5b809150505b92915050565b600061228b83836040518060400160405280601a81526020017f536166654d6174683a206469766973696f6e206279207a65726f000000000000815250612502565b905092915050565b600080828401905083811015612311576040517f08c379a000000000000000000000000000000000000000000000000000000000815260040180806020018281038252601b8152602001807f536166654d6174683a206164646974696f6e206f766572666c6f77000000000081525060200191505060405180910390fd5b8091505092915050565b6000612332600d544261217990919063ffffffff16565b905042600d81905550600081148061234c57506000600a54145b156123575750612440565b60008090505b600281101561243d57600060076000838152602001908152602001600020549050600081141561238d5750612432565b60006123b58460076000868152602001908152602001600020546121c390919063ffffffff16565b905060006123ef600a546123e16ec097ce7bc90715b34b9f1000000000856121c390919063ffffffff16565b61224990919063ffffffff16565b905061241781600b60008781526020019081526020016000205461229390919063ffffffff16565b600b6000868152602001908152602001600020819055505050505b60018101905061235d565b50505b565b60008383111582906124ef576040517f08c379a00000000000000000000000000000000000000000000000000000000081526004018080602001828103825283818151815260200191508051906020019080838360005b838110156124b4578082015181840152602081019050612499565b50505050905090810190601f1680156124e15780820380516001836020036101000a031916815260200191505b509250505060405180910390fd5b5060008385039050809150509392505050565b600080831182906125ae576040517f08c379a00000000000000000000000000000000000000000000000000000000081526004018080602001828103825283818151815260200191508051906020019080838360005b83811015612573578082015181840152602081019050612558565b50505050905090810190601f1680156125a05780820380516001836020036101000a031916815260200191505b509250505060405180910390fd5b5060008385816125ba57fe5b04905080915050939250505056fe4f6e6c792070726f78792061646d696e2063616e206368616e67652074686520696d706c656d656e746174696f6e536166654d6174683a206d756c7469706c69636174696f6e206f766572666c6f7772657761726420746f6b656e20616464726573732063616e206e6f74206265207a65726f5374616b656420746f6b656e20616464726573732063616e206e6f74206265207a65726fa265627a7a723158204235697e7fd2cb39ef2c28bded38df2cd21dbe40c6813aa2a9a81877469408f164736f6c63430005110032",
  "source": "pragma solidity 0.5.17;\n\nimport \"./EIP20Interface.sol\";\nimport \"./SafeMath.sol\";\nimport \"./ReentrancyGuard.sol\";\nimport \"./TranquilStakingStorage.sol\";\nimport \"./TranquilStakingProxy.sol\";\n\n\ncontract TranquilStaking is ReentrancyGuard, TranquilStakingStorage {\n    using SafeMath for uint256;\n\n    constructor() public {\n        admin = msg.sender;\n    }\n\n\n    /********************************************************\n     *                                                      *\n     *                   PUBLIC FUNCTIONS                   *\n     *                                                      *\n     ********************************************************/\n\n    /**\n     * Deposit tokens into the staking contract.\n     *\n     * @param amount The amount of tokens to deposit\n     */\n    function deposit(uint amount) external nonReentrant {\n        require(stakedTokenAddress != address(0), \"Staked token address can not be zero\");\n\n        EIP20Interface stakedToken = EIP20Interface(stakedTokenAddress);\n        uint contractBalance = stakedToken.balanceOf(address(this));\n        stakedToken.transferFrom(msg.sender, address(this), amount);\n        uint depositedAmount = stakedToken.balanceOf(address(this)).sub(contractBalance);\n\n        require(depositedAmount > 0, \"Zero deposit\");\n\n        distributeReward(msg.sender);\n\n        totalSupplies = totalSupplies.add(depositedAmount);\n        supplyAmount[msg.sender] = supplyAmount[msg.sender].add(depositedAmount);\n    }\n\n    /**\n     * Redeem tokens from the contract.\n     *\n     * @param amount Redeem amount\n     */\n    function redeem(uint amount) external nonReentrant {\n        require(stakedTokenAddress != address(0), \"Staked token address can not be zero\");\n        require(amount <= supplyAmount[msg.sender], \"Too large withdrawal\");\n\n        distributeReward(msg.sender);\n\n        supplyAmount[msg.sender] = supplyAmount[msg.sender].sub(amount);\n        totalSupplies = totalSupplies.sub(amount);\n\n        EIP20Interface stakedToken = EIP20Interface(stakedTokenAddress);\n        stakedToken.transfer(msg.sender, amount);\n    }\n\n    /**\n     * Claim pending rewards from the staking contract by transferring them\n     * to the requester.\n     */\n    function claimRewards() external nonReentrant {\n        distributeReward(msg.sender);\n\n        for (uint i = 0; i < nofStakingRewards; i += 1) {\n            uint amount = accruedReward[msg.sender][i];\n\n            if (i == REWARD_ONE) {\n                claimOne(msg.sender, amount);\n            } else {\n                claimErc20(i, msg.sender, amount);\n            }\n        }\n    }\n\n    /**\n     * Get the current amount of available rewards for claiming.\n     *\n     * @param rewardToken Reward token whose claimable balance to query\n     * @return Balance of claimable reward tokens\n     */\n    function getClaimableRewards(uint rewardToken) external view returns(uint) {\n        require(rewardToken <= nofStakingRewards, \"Invalid reward token\");\n\n        uint rewardIndexDelta = rewardIndex[rewardToken].sub(supplierRewardIndex[msg.sender][rewardToken]);\n        uint claimableReward = rewardIndexDelta.mul(supplyAmount[msg.sender]).div(1e36).add(accruedReward[msg.sender][rewardToken]);\n\n        return claimableReward;\n    }\n\n    /**\n     * Fallback function to accept ONE deposits.\n     */\n    function () external payable {}\n\n\n    /********************************************************\n     *                                                      *\n     *               ADMIN-ONLY FUNCTIONS                   *\n     *                                                      *\n     ********************************************************/\n\n    /**\n     * Set reward distribution speed.\n     *\n     * @param rewardToken Reward token speed to change\n     * @param speed New reward speed\n     */\n    function setRewardSpeed(uint rewardToken, uint speed) external adminOnly {\n        if (accrualBlockTimestamp != 0) {\n            accrueReward();\n        }\n\n        rewardSpeeds[rewardToken] = speed;\n    }\n\n    /**\n     * Set ERC20 reward token contract address.\n     *\n     * @param rewardToken Reward token address to set\n     * @param rewardTokenAddress New contract address\n     */\n    function setRewardTokenAddress(uint rewardToken, address rewardTokenAddress) external adminOnly {\n        require(rewardToken != REWARD_ONE, \"Cannot set ONE address\");\n        rewardTokenAddresses[rewardToken] = rewardTokenAddress;\n    }\n\n    /**\n     * Set the staked token contract address.\n     *\n     * @param newStakedTokenAddress New staked token contract address\n     */\n    function setStakedTokenAddress(address newStakedTokenAddress) external adminOnly {\n        stakedTokenAddress = newStakedTokenAddress;\n    }\n\n    /**\n     * Accept this contract as the implementation for a proxy.\n     *\n     * @param proxy TranquilStakingProxy\n     */\n    function becomeImplementation(TranquilStakingProxy proxy) external {\n        require(msg.sender == proxy.admin(), \"Only proxy admin can change the implementation\");\n        proxy.acceptPendingImplementation();\n    }\n\n\n    /********************************************************\n     *                                                      *\n     *                  INTERNAL FUNCTIONS                  *\n     *                                                      *\n     ********************************************************/\n\n    /**\n     * Update reward accrual state.\n     *\n     * @dev accrueReward() must be called every time the token balances\n     *      or reward speeds change\n     */\n    function accrueReward() internal {\n        uint blockTimestampDelta = block.timestamp.sub(accrualBlockTimestamp);\n        accrualBlockTimestamp = block.timestamp;\n\n        if (blockTimestampDelta == 0 || totalSupplies == 0) {\n            return;\n        }\n\n        for (uint i = 0; i < nofStakingRewards; i += 1) {\n            uint rewardSpeed = rewardSpeeds[i];\n            if (rewardSpeed == 0) {\n                continue;\n            }\n\n            uint accrued = rewardSpeeds[i].mul(blockTimestampDelta);\n            uint accruedPerStakedToken = accrued.mul(1e36).div(totalSupplies);\n\n            rewardIndex[i] = rewardIndex[i].add(accruedPerStakedToken);\n        }\n    }\n\n    /**\n     * Calculate accrued rewards for a single account based on the reward indexes.\n     *\n     * @param recipient Account for which to calculate accrued rewards\n     */\n    function distributeReward(address recipient) internal {\n        accrueReward();\n\n        for (uint i = 0; i < nofStakingRewards; i += 1) {\n            uint rewardIndexDelta = rewardIndex[i].sub(supplierRewardIndex[recipient][i]);\n            uint accruedAmount = rewardIndexDelta.mul(supplyAmount[recipient]).div(1e36);\n            accruedReward[recipient][i] = accruedReward[recipient][i].add(accruedAmount);\n            supplierRewardIndex[recipient][i] = rewardIndex[i];\n        }\n    }\n\n    /**\n     * Transfer ONE rewards from the contract to the reward recipient.\n     *\n     * @param recipient Address, whose ONE rewards are claimed\n     * @param amount The amount of claimed ONE\n     */\n    function claimOne(address payable recipient, uint amount) internal {\n        require(accruedReward[recipient][REWARD_ONE] <= amount, \"Not enough accrued rewards\");\n\n        accruedReward[recipient][REWARD_ONE] = accruedReward[recipient][REWARD_ONE].sub(amount);\n        recipient.transfer(amount);\n    }\n\n    /**\n     * Transfer ERC20 rewards from the contract to the reward recipient.\n     *\n     * @param rewardToken ERC20 reward token which is claimed\n     * @param recipient Address, whose rewards are claimed\n     * @param amount The amount of claimed reward\n     */\n    function claimErc20(uint rewardToken, address recipient, uint amount) internal {\n        require(rewardToken != REWARD_ONE, \"Cannot use claimErc20 for ONE\");\n        require(accruedReward[recipient][rewardToken] <= amount, \"Not enough accrued rewards\");\n        require(rewardTokenAddresses[rewardToken] != address(0), \"reward token address can not be zero\");\n\n        EIP20Interface token = EIP20Interface(rewardTokenAddresses[rewardToken]);\n        accruedReward[recipient][rewardToken] = accruedReward[recipient][rewardToken].sub(amount);\n        token.transfer(recipient, amount);\n    }\n\n\n    /********************************************************\n     *                                                      *\n     *                      MODIFIERS                       *\n     *                                                      *\n     ********************************************************/\n\n    modifier adminOnly {\n        require(msg.sender == admin, \"admin only\");\n        _;\n    }\n}\n",
  "sourcePath": "/Users/krd41222/Desktop/src/web3/tranq_staking_finder/contracts/TranquilStaking.sol",
  "compiler": {
    "name": "solc",
    "version": "0.5.17+commit.d19bba13.Emscripten.clang"
  },
  "schemaVersion": "3.4.3",
  "updatedAt": "2022-02-11T06:37:27.788Z",
  "devdoc": {
    "methods": {
      "becomeImplementation(address)": {
        "params": {
          "proxy": "TranquilStakingProxy"
        }
      },
      "deposit(uint256)": {
        "params": {
          "amount": "The amount of tokens to deposit"
        }
      },
      "getClaimableRewards(uint256)": {
        "params": {
          "rewardToken": "Reward token whose claimable balance to query"
        },
        "return": "Balance of claimable reward tokens"
      },
      "redeem(uint256)": {
        "params": {
          "amount": "Redeem amount"
        }
      },
      "setRewardSpeed(uint256,uint256)": {
        "params": {
          "rewardToken": "Reward token speed to change",
          "speed": "New reward speed"
        }
      },
      "setRewardTokenAddress(uint256,address)": {
        "params": {
          "rewardToken": "Reward token address to set",
          "rewardTokenAddress": "New contract address"
        }
      },
      "setStakedTokenAddress(address)": {
        "params": {
          "newStakedTokenAddress": "New staked token contract address"
        }
      }
    }
  },
  "userdoc": {
    "methods": {
      "becomeImplementation(address)": {
        "notice": "Accept this contract as the implementation for a proxy."
      },
      "claimRewards()": {
        "notice": "Claim pending rewards from the staking contract by transferring them to the requester."
      },
      "deposit(uint256)": {
        "notice": "Deposit tokens into the staking contract."
      },
      "getClaimableRewards(uint256)": {
        "notice": "Get the current amount of available rewards for claiming."
      },
      "redeem(uint256)": {
        "notice": "Redeem tokens from the contract."
      },
      "setRewardSpeed(uint256,uint256)": {
        "notice": "Set reward distribution speed."
      },
      "setRewardTokenAddress(uint256,address)": {
        "notice": "Set ERC20 reward token contract address."
      },
      "setStakedTokenAddress(address)": {
        "notice": "Set the staked token contract address."
      }
    }
  }
}